{
  "contractName": "GoldWireToken",
  "abi": [
    {
      "inputs": [],
      "stateMutability": "nonpayable",
      "type": "constructor"
    },
    {
      "inputs": [],
      "name": "message",
      "outputs": [
        {
          "internalType": "string",
          "name": "",
          "type": "string"
        }
      ],
      "stateMutability": "view",
      "type": "function",
      "constant": true
    },
    {
      "inputs": [],
      "name": "owner",
      "outputs": [
        {
          "internalType": "address",
          "name": "",
          "type": "address"
        }
      ],
      "stateMutability": "view",
      "type": "function",
      "constant": true
    },
    {
      "inputs": [
        {
          "internalType": "string",
          "name": "_message",
          "type": "string"
        }
      ],
      "name": "setMessage",
      "outputs": [
        {
          "internalType": "string",
          "name": "",
          "type": "string"
        }
      ],
      "stateMutability": "nonpayable",
      "type": "function"
    }
  ],
  "bytecode": "0x6080604052336000806101000a81548173ffffffffffffffffffffffffffffffffffffffff021916908373ffffffffffffffffffffffffffffffffffffffff1602179055503480156200005157600080fd5b506040518060400160405280600c81526020017f48656c6c6f20576f726c642100000000000000000000000000000000000000008152506001908162000098919062000319565b5062000400565b600081519050919050565b7f4e487b7100000000000000000000000000000000000000000000000000000000600052604160045260246000fd5b7f4e487b7100000000000000000000000000000000000000000000000000000000600052602260045260246000fd5b600060028204905060018216806200012157607f821691505b602082108103620001375762000136620000d9565b5b50919050565b60008190508160005260206000209050919050565b60006020601f8301049050919050565b600082821b905092915050565b600060088302620001a17fffffffffffffffffffffffffffffffffffffffffffffffffffffffffffffffff8262000162565b620001ad868362000162565b95508019841693508086168417925050509392505050565b6000819050919050565b6000819050919050565b6000620001fa620001f4620001ee84620001c5565b620001cf565b620001c5565b9050919050565b6000819050919050565b6200021683620001d9565b6200022e620002258262000201565b8484546200016f565b825550505050565b600090565b6200024562000236565b620002528184846200020b565b505050565b5b818110156200027a576200026e6000826200023b565b60018101905062000258565b5050565b601f821115620002c95762000293816200013d565b6200029e8462000152565b81016020851015620002ae578190505b620002c6620002bd8562000152565b83018262000257565b50505b505050565b600082821c905092915050565b6000620002ee60001984600802620002ce565b1980831691505092915050565b6000620003098383620002db565b9150826002028217905092915050565b62000324826200009f565b67ffffffffffffffff81111562000340576200033f620000aa565b5b6200034c825462000108565b620003598282856200027e565b600060209050601f8311600181146200039157600084156200037c578287015190505b620003888582620002fb565b865550620003f8565b601f198416620003a1866200013d565b60005b82811015620003cb57848901518255600182019150602085019450602081019050620003a4565b86831015620003eb5784890151620003e7601f891682620002db565b8355505b6001600288020188555050505b505050505050565b6108f480620004106000396000f3fe608060405234801561001057600080fd5b50600436106100415760003560e01c8063368b8772146100465780638da5cb5b14610076578063e21f37ce14610094575b600080fd5b610060600480360381019061005b91906103fe565b6100b2565b60405161006d91906104c6565b60405180910390f35b61007e6101f2565b60405161008b9190610529565b60405180910390f35b61009c610216565b6040516100a991906104c6565b60405180910390f35b606060008054906101000a900473ffffffffffffffffffffffffffffffffffffffff1673ffffffffffffffffffffffffffffffffffffffff163373ffffffffffffffffffffffffffffffffffffffff1614610142576040517f08c379a0000000000000000000000000000000000000000000000000000000008152600401610139906105b6565b60405180910390fd5b600082511161015057600080fd5b816001908161015f91906107ec565b506001805461016d90610605565b80601f016020809104026020016040519081016040528092919081815260200182805461019990610605565b80156101e65780601f106101bb576101008083540402835291602001916101e6565b820191906000526020600020905b8154815290600101906020018083116101c957829003601f168201915b50505050509050919050565b60008054906101000a900473ffffffffffffffffffffffffffffffffffffffff1681565b6001805461022390610605565b80601f016020809104026020016040519081016040528092919081815260200182805461024f90610605565b801561029c5780601f106102715761010080835404028352916020019161029c565b820191906000526020600020905b81548152906001019060200180831161027f57829003601f168201915b505050505081565b6000604051905090565b600080fd5b600080fd5b600080fd5b600080fd5b6000601f19601f8301169050919050565b7f4e487b7100000000000000000000000000000000000000000000000000000000600052604160045260246000fd5b61030b826102c2565b810181811067ffffffffffffffff8211171561032a576103296102d3565b5b80604052505050565b600061033d6102a4565b90506103498282610302565b919050565b600067ffffffffffffffff821115610369576103686102d3565b5b610372826102c2565b9050602081019050919050565b82818337600083830152505050565b60006103a161039c8461034e565b610333565b9050828152602081018484840111156103bd576103bc6102bd565b5b6103c884828561037f565b509392505050565b600082601f8301126103e5576103e46102b8565b5b81356103f584826020860161038e565b91505092915050565b600060208284031215610414576104136102ae565b5b600082013567ffffffffffffffff811115610432576104316102b3565b5b61043e848285016103d0565b91505092915050565b600081519050919050565b600082825260208201905092915050565b60005b83811015610481578082015181840152602081019050610466565b60008484015250505050565b600061049882610447565b6104a28185610452565b93506104b2818560208601610463565b6104bb816102c2565b840191505092915050565b600060208201905081810360008301526104e0818461048d565b905092915050565b600073ffffffffffffffffffffffffffffffffffffffff82169050919050565b6000610513826104e8565b9050919050565b61052381610508565b82525050565b600060208201905061053e600083018461051a565b92915050565b7f546869732066756e6374696f6e206973207265737472696374656420746f207460008201527f686520636f6e74726163742773206f776e657200000000000000000000000000602082015250565b60006105a0603383610452565b91506105ab82610544565b604082019050919050565b600060208201905081810360008301526105cf81610593565b9050919050565b7f4e487b7100000000000000000000000000000000000000000000000000000000600052602260045260246000fd5b6000600282049050600182168061061d57607f821691505b6020821081036106305761062f6105d6565b5b50919050565b60008190508160005260206000209050919050565b60006020601f8301049050919050565b600082821b905092915050565b6000600883026106987fffffffffffffffffffffffffffffffffffffffffffffffffffffffffffffffff8261065b565b6106a2868361065b565b95508019841693508086168417925050509392505050565b6000819050919050565b6000819050919050565b60006106e96106e46106df846106ba565b6106c4565b6106ba565b9050919050565b6000819050919050565b610703836106ce565b61071761070f826106f0565b848454610668565b825550505050565b600090565b61072c61071f565b6107378184846106fa565b505050565b5b8181101561075b57610750600082610724565b60018101905061073d565b5050565b601f8211156107a05761077181610636565b61077a8461064b565b81016020851015610789578190505b61079d6107958561064b565b83018261073c565b50505b505050565b600082821c905092915050565b60006107c3600019846008026107a5565b1980831691505092915050565b60006107dc83836107b2565b9150826002028217905092915050565b6107f582610447565b67ffffffffffffffff81111561080e5761080d6102d3565b5b6108188254610605565b61082382828561075f565b600060209050601f8311600181146108565760008415610844578287015190505b61084e85826107d0565b8655506108b6565b601f19841661086486610636565b60005b8281101561088c57848901518255600182019150602085019450602081019050610867565b868310156108a957848901516108a5601f8916826107b2565b8355505b6001600288020188555050505b50505050505056fea2646970667358221220191540938a618b969ac25263148d63434b6daa1eeeda07acbe5d12877026ba0164736f6c63430008100033",
  "immutableReferences": {},
  "source": "pragma solidity >=0.4.22 <0.9.0;\r\n\r\ncontract GoldWireToken {\r\n  address public owner = msg.sender;\r\n  string public message;\r\n\r\n  // this function runs when the contract is deployed\r\n  constructor() public {\r\n    // set initial message\r\n    message = \"Hello World!\";\r\n  }\r\n\r\n  modifier ownerOnly() {\r\n    require(\r\n      msg.sender == owner,\r\n      \"This function is restricted to the contract's owner\"\r\n    );\r\n    _;\r\n  }\r\n\r\n  // function that only contract owner can run, to set a new message\r\n  function setMessage(string memory _message) \r\n    public \r\n    ownerOnly \r\n    returns(string memory) \r\n  {\r\n    // message must not be empty\r\n    require(bytes(_message).length > 0);\r\n\r\n    // set new message\r\n    message = _message;\r\n    return message;\r\n  }\r\n}",
  "sourcePath": "C:\\pleiades\\xampp\\htdocs\\contracts\\GoldWireToken.sol",
  "compiler": {
    "name": "solc",
    "version": "0.8.16+commit.07a7930e.Emscripten.clang"
  },
  "schemaVersion": "3.4.9",
  "updatedAt": "2022-08-26T07:19:49.065Z",
  "networkType": "ethereum",
  "devdoc": {
    "kind": "dev",
    "methods": {},
    "version": 1
  },
  "userdoc": {
    "kind": "user",
    "methods": {},
    "version": 1
  }
}